{
  "transactions": [
    {
      "hash": "0x3bd14d3b97e16b5a2ca330c35cecab963de20214e877ac2ed1b935ae1355bad3",
      "transactionType": "CALL",
      "contractName": null,
      "contractAddress": "0xd63ea46ec889e6fa89072e0083d88908f2918361",
      "function": "addSessionKey(address,(bool,uint48,uint256,uint256))",
      "arguments": [
        "0xD5B95747CcCEa0E0115623e05d8067a666cfF9c8",
        "(true, 1813225034, 1000000000, 5000000000)"
      ],
      "transaction": {
        "from": "0x13ffba08c4c6636062c4fd812a97a67eafc2fe2b",
        "to": "0xd63ea46ec889e6fa89072e0083d88908f2918361",
        "gas": "0x207c5",
        "value": "0x0",
        "input": "0x4fa2724f000000000000000000000000d5b95747cccea0e0115623e05d8067a666cff9c80000000000000000000000000000000000000000000000000000000000000001000000000000000000000000000000000000000000000000000000006c139e4a000000000000000000000000000000000000000000000000000000003b9aca00000000000000000000000000000000000000000000000000000000012a05f200",
        "nonce": "0x9",
        "chainId": "0x14a34"
      },
      "additionalContracts": [],
      "isFixedGasLimit": false
    }
  ],
  "receipts": [
    {
      "status": "0x1",
      "cumulativeGasUsed": "0x54111f",
      "logs": [
        {
          "address": "0xd63ea46ec889e6fa89072e0083d88908f2918361",
          "topics": [
            "0xdf7893125b618293614687811f7475856f46429380555502fba0af70c12f4043",
            "0x000000000000000000000000d5b95747cccea0e0115623e05d8067a666cff9c8"
          ],
          "data": "0x000000000000000000000000000000000000000000000000000000006c139e4a",
          "blockHash": "0x0000000000000000000000000000000000000000000000000000000000000000",
          "blockNumber": "0x28f85f8",
          "blockTimestamp": "0x6a326ad0",
          "transactionHash": "0x3bd14d3b97e16b5a2ca330c35cecab963de20214e877ac2ed1b935ae1355bad3",
          "transactionIndex": "0xf",
          "logIndex": "0xd1",
          "removed": false
        }
      ],
      "logsBloom": "0x00000000000000000000000000000000000000008000000000000000000000000400000000000000000000000000000000000000000080000000000000000000000000000000000000000000000000000000080000000000000000000000000000800000000000000000000000000000000000008000000000000000000000000000000000000000000000000000000000000000000000000000000000000004000000000000000000000000002000000000000000000000000000002000000000000000000000000000000000000000000000000000000000000000000000000000000000000000000000000000000000000000000000000000000000000000",
      "type": "0x2",
      "transactionHash": "0x3bd14d3b97e16b5a2ca330c35cecab963de20214e877ac2ed1b935ae1355bad3",
      "transactionIndex": "0xf",
      "blockHash": "0x0000000000000000000000000000000000000000000000000000000000000000",
      "blockNumber": "0x28f85f8",
      "gasUsed": "0x1784f",
      "effectiveGasPrice": "0x5b8d80",
      "blobGasUsed": "0xc162",
      "from": "0x13ffba08c4c6636062c4fd812a97a67eafc2fe2b",
      "to": "0xd63ea46ec889e6fa89072e0083d88908f2918361",
      "contractAddress": null,
      "daFootprintGasScalar": "0x1be",
      "l1BaseFeeScalar": "0x44d",
      "l1BlobBaseFee": "0x3f18464",
      "l1BlobBaseFeeScalar": "0xa118b",
      "l1Fee": "0x19be081b5",
      "l1GasPrice": "0x3e4d6416",
      "l1GasUsed": "0x6f5"
    }
  ],
  "libraries": [],
  "pending": [],
  "returns": {},
  "timestamp": 1781689039,
  "chain": 84532,
  "commit": null
}