{
  "transactions": [
    {
      "hash": "0x14c60f9cd1ae0f78e96ed552a43cb7b1a9d255f6f65da51d8787b409feb3d1c5",
      "transactionType": "CALL",
      "contractName": null,
      "contractAddress": "0xe097784c26fcf1b3a5d737df5ef48dcbae325939",
      "function": "createWallet(address,uint256)",
      "arguments": [
        "0x13FFba08c4C6636062c4fD812A97a67EAfc2Fe2B",
        "0"
      ],
      "transaction": {
        "from": "0x13ffba08c4c6636062c4fd812a97a67eafc2fe2b",
        "to": "0xe097784c26fcf1b3a5d737df5ef48dcbae325939",
        "gas": "0x284082",
        "value": "0x0",
        "input": "0xf247d21700000000000000000000000013ffba08c4c6636062c4fd812a97a67eafc2fe2b0000000000000000000000000000000000000000000000000000000000000000",
        "nonce": "0x4",
        "chainId": "0x14a34"
      },
      "additionalContracts": [
        {
          "transactionType": "CREATE2",
          "address": "0xd63ea46ec889e6fa89072e0083d88908f2918361",
          "initCode": "0x60a060405234801562000010575f80fd5b506040516200238f3803806200238f833981810160405281019062000036919062000278565b805f73ffffffffffffffffffffffffffffffffffffffff168173ffffffffffffffffffffffffffffffffffffffff1603620000aa575f6040517f1e4fbdf7000000000000000000000000000000000000000000000000000000008152600401620000a19190620002ce565b60405180910390fd5b620000bb816200012060201b60201c565b506001620000de620000d2620001e160201b60201c565b6200020a60201b60201c565b5f01819055508173ffffffffffffffffffffffffffffffffffffffff1660808173ffffffffffffffffffffffffffffffffffffffff16815250505050620002e9565b5f805f9054906101000a900473ffffffffffffffffffffffffffffffffffffffff169050815f806101000a81548173ffffffffffffffffffffffffffffffffffffffff021916908373ffffffffffffffffffffffffffffffffffffffff1602179055508173ffffffffffffffffffffffffffffffffffffffff168173ffffffffffffffffffffffffffffffffffffffff167f8be0079c531659141344cd1fd0a4f28419497f9722a3daafe3b4186f6b6457e060405160405180910390a35050565b5f7f9b779b17422d0df92223018b32b4d1fa46e071723d6817e2486d003becc55f005f1b905090565b5f819050919050565b5f80fd5b5f73ffffffffffffffffffffffffffffffffffffffff82169050919050565b5f620002428262000217565b9050919050565b620002548162000236565b81146200025f575f80fd5b50565b5f81519050620002728162000249565b92915050565b5f806040838503121562000291576200029062000213565b5b5f620002a08582860162000262565b9250506020620002b38582860162000262565b9150509250929050565b620002c88162000236565b82525050565b5f602082019050620002e35f830184620002bd565b92915050565b608051612078620003175f395f818161038d0152818161042f015281816104550152610a4701526120785ff3fe60806040526004361061009f575f3560e01c8063715018a611610063578063715018a61461019c5780637a364461146101b257806384f4fc6a146101ee5780638da5cb5b14610216578063b61d27f614610240578063f2fde38b14610268576100a6565b80631626ba7e146100aa57806319822f7c146100e657806344ab613f1461012257806347e1da2a1461014c5780634fa2724f14610174576100a6565b366100a657005b5f80fd5b3480156100b5575f80fd5b506100d060048036038101906100cb9190611524565b610290565b6040516100dd91906115b8565b60405180910390f35b3480156100f1575f80fd5b5061010c60048036038101906101079190611627565b61038a565b60405161011991906116a2565b60405180910390f35b34801561012d575f80fd5b5061013661042c565b60405161014391906116fa565b60405180910390f35b348015610157575f80fd5b50610172600480360381019061016d919061181a565b610453565b005b34801561017f575f80fd5b5061019a60048036038101906101959190611912565b610706565b005b3480156101a7575f80fd5b506101b06108b8565b005b3480156101bd575f80fd5b506101d860048036038101906101d39190611950565b6108cb565b6040516101e59190611a17565b60405180910390f35b3480156101f9575f80fd5b50610214600480360381019061020f9190611950565b61097a565b005b348015610221575f80fd5b5061022a610a1e565b60405161023791906116fa565b60405180910390f35b34801561024b575f80fd5b5061026660048036038101906102619190611a85565b610a45565b005b348015610273575f80fd5b5061028e60048036038101906102899190611950565b610bd3565b005b5f8061029c8484610c57565b90506102a6610a1e565b73ffffffffffffffffffffffffffffffffffffffff168173ffffffffffffffffffffffffffffffffffffffff16036102e857631626ba7e60e01b915050610384565b5f60015f8373ffffffffffffffffffffffffffffffffffffffff1673ffffffffffffffffffffffffffffffffffffffff1681526020019081526020015f209050805f015f9054906101000a900460ff1680156103615750805f0160019054906101000a900465ffffffffffff1665ffffffffffff164211155b1561037757631626ba7e60e01b92505050610384565b63ffffffff60e01b925050505b92915050565b5f7f000000000000000000000000000000000000000000000000000000000000000073ffffffffffffffffffffffffffffffffffffffff163373ffffffffffffffffffffffffffffffffffffffff1614610410576040517f95e1d79500000000000000000000000000000000000000000000000000000000815260040160405180910390fd5b61041a8484610c81565b905061042582610dbd565b9392505050565b5f7f0000000000000000000000000000000000000000000000000000000000000000905090565b7f000000000000000000000000000000000000000000000000000000000000000073ffffffffffffffffffffffffffffffffffffffff163373ffffffffffffffffffffffffffffffffffffffff16141580156104e257506104b2610a1e565b73ffffffffffffffffffffffffffffffffffffffff163373ffffffffffffffffffffffffffffffffffffffff1614155b15610519576040517fad5de63500000000000000000000000000000000000000000000000000000000815260040160405180910390fd5b610521610e54565b818190508686905014610560576040517f8c86f28a00000000000000000000000000000000000000000000000000000000815260040160405180910390fd5b5f84849050141580156105795750858590508484905014155b156105b0576040517f8c86f28a00000000000000000000000000000000000000000000000000000000815260040160405180910390fd5b5f5b868690508110156106f5575f8086869050146105e7578585838181106105db576105da611af6565b5b905060200201356105e9565b5f5b90505f80898985818110610600576105ff611af6565b5b90506020020160208101906106159190611950565b73ffffffffffffffffffffffffffffffffffffffff168387878781811061063f5761063e611af6565b5b90506020028101906106519190611b2f565b60405161065f929190611bbf565b5f6040518083038185875af1925050503d805f8114610699576040519150601f19603f3d011682016040523d82523d5f602084013e61069e565b606091505b5091509150816106e557806040517f163ddb490000000000000000000000000000000000000000000000000000000081526004016106dc9190611c51565b60405180910390fd5b50505080806001019150506105b2565b506106fe610e76565b505050505050565b61070e610e90565b5f73ffffffffffffffffffffffffffffffffffffffff168273ffffffffffffffffffffffffffffffffffffffff16148061077a575061074b610a1e565b73ffffffffffffffffffffffffffffffffffffffff168273ffffffffffffffffffffffffffffffffffffffff16145b156107b1576040517f4ce127c000000000000000000000000000000000000000000000000000000000815260040160405180910390fd5b8060015f8473ffffffffffffffffffffffffffffffffffffffff1673ffffffffffffffffffffffffffffffffffffffff1681526020019081526020015f2081816107fb9190611ee3565b9050506001805f8473ffffffffffffffffffffffffffffffffffffffff1673ffffffffffffffffffffffffffffffffffffffff1681526020019081526020015f205f015f6101000a81548160ff0219169083151502179055508173ffffffffffffffffffffffffffffffffffffffff167fdf7893125b618293614687811f7475856f46429380555502fba0af70c12f404382602001602081019061089f9190611f05565b6040516108ac9190611f3f565b60405180910390a25050565b6108c0610e90565b6108c95f610f17565b565b6108d3611376565b60015f8373ffffffffffffffffffffffffffffffffffffffff1673ffffffffffffffffffffffffffffffffffffffff1681526020019081526020015f206040518060800160405290815f82015f9054906101000a900460ff161515151581526020015f820160019054906101000a900465ffffffffffff1665ffffffffffff1665ffffffffffff168152602001600182015481526020016002820154815250509050919050565b610982610e90565b5f60015f8373ffffffffffffffffffffffffffffffffffffffff1673ffffffffffffffffffffffffffffffffffffffff1681526020019081526020015f205f015f6101000a81548160ff0219169083151502179055508073ffffffffffffffffffffffffffffffffffffffff167f17c796fb82086b3c9effaec517342e5ca9ed8fd78c339137ec082f748ab60cbe60405160405180910390a250565b5f805f9054906101000a900473ffffffffffffffffffffffffffffffffffffffff16905090565b7f000000000000000000000000000000000000000000000000000000000000000073ffffffffffffffffffffffffffffffffffffffff163373ffffffffffffffffffffffffffffffffffffffff1614158015610ad45750610aa4610a1e565b73ffffffffffffffffffffffffffffffffffffffff163373ffffffffffffffffffffffffffffffffffffffff1614155b15610b0b576040517fad5de63500000000000000000000000000000000000000000000000000000000815260040160405180910390fd5b610b13610e54565b5f808573ffffffffffffffffffffffffffffffffffffffff16858585604051610b3d929190611bbf565b5f6040518083038185875af1925050503d805f8114610b77576040519150601f19603f3d011682016040523d82523d5f602084013e610b7c565b606091505b509150915081610bc357806040517f163ddb49000000000000000000000000000000000000000000000000000000008152600401610bba9190611c51565b60405180910390fd5b5050610bcd610e76565b50505050565b610bdb610e90565b5f73ffffffffffffffffffffffffffffffffffffffff168173ffffffffffffffffffffffffffffffffffffffff1603610c4b575f6040517f1e4fbdf7000000000000000000000000000000000000000000000000000000008152600401610c4291906116fa565b60405180910390fd5b610c5481610f17565b50565b5f805f80610c658686610fd8565b925092509250610c75828261102d565b82935050505092915050565b5f80610c8c8361118f565b90505f610ceb8286806101000190610ca49190611b2f565b8080601f0160208091040260200160405190810160405280939291908181526020018383808284375f81840152601f19601f82011690508083019250505050505050610c57565b9050610cf5610a1e565b73ffffffffffffffffffffffffffffffffffffffff168173ffffffffffffffffffffffffffffffffffffffff1603610d31575f92505050610db7565b5f60015f8373ffffffffffffffffffffffffffffffffffffffff1673ffffffffffffffffffffffffffffffffffffffff1681526020019081526020015f209050805f015f9054906101000a900460ff16610d915760019350505050610db7565b610db15f825f0160019054906101000a900465ffffffffffff165f6111c2565b93505050505b92915050565b5f8114610e51575f3373ffffffffffffffffffffffffffffffffffffffff16827fffffffffffffffffffffffffffffffffffffffffffffffffffffffffffffffff90604051610e0b90611f7b565b5f60405180830381858888f193505050503d805f8114610e46576040519150601f19603f3d011682016040523d82523d5f602084013e610e4b565b606091505b50509050505b50565b610e5c6111f9565b6002610e6e610e6961123a565b611263565b5f0181905550565b6001610e88610e8361123a565b611263565b5f0181905550565b610e9861126c565b73ffffffffffffffffffffffffffffffffffffffff16610eb6610a1e565b73ffffffffffffffffffffffffffffffffffffffff1614610f1557610ed961126c565b6040517f118cdaa7000000000000000000000000000000000000000000000000000000008152600401610f0c91906116fa565b60405180910390fd5b565b5f805f9054906101000a900473ffffffffffffffffffffffffffffffffffffffff169050815f806101000a81548173ffffffffffffffffffffffffffffffffffffffff021916908373ffffffffffffffffffffffffffffffffffffffff1602179055508173ffffffffffffffffffffffffffffffffffffffff168173ffffffffffffffffffffffffffffffffffffffff167f8be0079c531659141344cd1fd0a4f28419497f9722a3daafe3b4186f6b6457e060405160405180910390a35050565b5f805f6041845103611018575f805f602087015192506040870151915060608701515f1a905061100a88828585611273565b955095509550505050611026565b5f600285515f1b9250925092505b9250925092565b5f60038111156110405761103f611f8f565b5b82600381111561105357611052611f8f565b5b031561118b576001600381111561106d5761106c611f8f565b5b8260038111156110805761107f611f8f565b5b036110b7576040517ff645eedf00000000000000000000000000000000000000000000000000000000815260040160405180910390fd5b600260038111156110cb576110ca611f8f565b5b8260038111156110de576110dd611f8f565b5b0361112257805f1c6040517ffce698f700000000000000000000000000000000000000000000000000000000815260040161111991906116a2565b60405180910390fd5b60038081111561113557611134611f8f565b5b82600381111561114857611147611f8f565b5b0361118a57806040517fd78bce0c0000000000000000000000000000000000000000000000000000000081526004016111819190611fcb565b60405180910390fd5b5b5050565b5f7f19457468657265756d205369676e6564204d6573736167653a0a3332000000005f5281601c52603c5f209050919050565b5f60d08265ffffffffffff16901b60a08465ffffffffffff16901b856111e8575f6111eb565b60015b60ff16171790509392505050565b61120161135a565b15611238576040517f3ee5aeb500000000000000000000000000000000000000000000000000000000815260040160405180910390fd5b565b5f7f9b779b17422d0df92223018b32b4d1fa46e071723d6817e2486d003becc55f005f1b905090565b5f819050919050565b5f33905090565b5f805f7f7fffffffffffffffffffffffffffffff5d576e7357a4501ddfe92f46681b20a0845f1c11156112af575f600385925092509250611350565b5f6001888888886040515f81526020016040526040516112d29493929190611fff565b6020604051602081039080840390855afa1580156112f2573d5f803e3d5ffd5b5050506020604051035190505f73ffffffffffffffffffffffffffffffffffffffff168173ffffffffffffffffffffffffffffffffffffffff1603611343575f60015f801b93509350935050611350565b805f805f1b935093509350505b9450945094915050565b5f600261136d61136861123a565b611263565b5f015414905090565b60405180608001604052805f151581526020015f65ffffffffffff1681526020015f81526020015f81525090565b5f604051905090565b5f80fd5b5f80fd5b5f819050919050565b6113c7816113b5565b81146113d1575f80fd5b50565b5f813590506113e2816113be565b92915050565b5f80fd5b5f80fd5b5f601f19601f8301169050919050565b7f4e487b71000000000000000000000000000000000000000000000000000000005f52604160045260245ffd5b611436826113f0565b810181811067ffffffffffffffff8211171561145557611454611400565b5b80604052505050565b5f6114676113a4565b9050611473828261142d565b919050565b5f67ffffffffffffffff82111561149257611491611400565b5b61149b826113f0565b9050602081019050919050565b828183375f83830152505050565b5f6114c86114c384611478565b61145e565b9050828152602081018484840111156114e4576114e36113ec565b5b6114ef8482856114a8565b509392505050565b5f82601f83011261150b5761150a6113e8565b5b813561151b8482602086016114b6565b91505092915050565b5f806040838503121561153a576115396113ad565b5b5f611547858286016113d4565b925050602083013567ffffffffffffffff811115611568576115676113b1565b5b611574858286016114f7565b9150509250929050565b5f7fffffffff0000000000000000000000000000000000000000000000000000000082169050919050565b6115b28161157e565b82525050565b5f6020820190506115cb5f8301846115a9565b92915050565b5f80fd5b5f61012082840312156115eb576115ea6115d1565b5b81905092915050565b5f819050919050565b611606816115f4565b8114611610575f80fd5b50565b5f81359050611621816115fd565b92915050565b5f805f6060848603121561163e5761163d6113ad565b5b5f84013567ffffffffffffffff81111561165b5761165a6113b1565b5b611667868287016115d5565b9350506020611678868287016113d4565b925050604061168986828701611613565b9150509250925092565b61169c816115f4565b82525050565b5f6020820190506116b55f830184611693565b92915050565b5f73ffffffffffffffffffffffffffffffffffffffff82169050919050565b5f6116e4826116bb565b9050919050565b6116f4816116da565b82525050565b5f60208201905061170d5f8301846116eb565b92915050565b5f80fd5b5f80fd5b5f8083601f8401126117305761172f6113e8565b5b8235905067ffffffffffffffff81111561174d5761174c611713565b5b60208301915083602082028301111561176957611768611717565b5b9250929050565b5f8083601f840112611785576117846113e8565b5b8235905067ffffffffffffffff8111156117a2576117a1611713565b5b6020830191508360208202830111156117be576117bd611717565b5b9250929050565b5f8083601f8401126117da576117d96113e8565b5b8235905067ffffffffffffffff8111156117f7576117f6611713565b5b60208301915083602082028301111561181357611812611717565b5b9250929050565b5f805f805f8060608789031215611834576118336113ad565b5b5f87013567ffffffffffffffff811115611851576118506113b1565b5b61185d89828a0161171b565b9650965050602087013567ffffffffffffffff8111156118805761187f6113b1565b5b61188c89828a01611770565b9450945050604087013567ffffffffffffffff8111156118af576118ae6113b1565b5b6118bb89828a016117c5565b92509250509295509295509295565b6118d3816116da565b81146118dd575f80fd5b50565b5f813590506118ee816118ca565b92915050565b5f60808284031215611909576119086115d1565b5b81905092915050565b5f8060a08385031215611928576119276113ad565b5b5f611935858286016118e0565b9250506020611946858286016118f4565b9150509250929050565b5f60208284031215611965576119646113ad565b5b5f611972848285016118e0565b91505092915050565b5f8115159050919050565b61198f8161197b565b82525050565b5f65ffffffffffff82169050919050565b6119af81611995565b82525050565b6119be816115f4565b82525050565b608082015f8201516119d85f850182611986565b5060208201516119eb60208501826119a6565b5060408201516119fe60408501826119b5565b506060820151611a1160608501826119b5565b50505050565b5f608082019050611a2a5f8301846119c4565b92915050565b5f8083601f840112611a4557611a446113e8565b5b8235905067ffffffffffffffff811115611a6257611a61611713565b5b602083019150836001820283011115611a7e57611a7d611717565b5b9250929050565b5f805f8060608587031215611a9d57611a9c6113ad565b5b5f611aaa878288016118e0565b9450506020611abb87828801611613565b935050604085013567ffffffffffffffff811115611adc57611adb6113b1565b5b611ae887828801611a30565b925092505092959194509250565b7f4e487b71000000000000000000000000000000000000000000000000000000005f52603260045260245ffd5b5f80fd5b5f80fd5b5f80fd5b5f8083356001602003843603038112611b4b57611b4a611b23565b5b80840192508235915067ffffffffffffffff821115611b6d57611b6c611b27565b5b602083019250600182023603831315611b8957611b88611b2b565b5b509250929050565b5f81905092915050565b5f611ba68385611b91565b9350611bb38385846114a8565b82840190509392505050565b5f611bcb828486611b9b565b91508190509392505050565b5f81519050919050565b5f82825260208201905092915050565b5f5b83811015611c0e578082015181840152602081019050611bf3565b5f8484015250505050565b5f611c2382611bd7565b611c2d8185611be1565b9350611c3d818560208601611bf1565b611c46816113f0565b840191505092915050565b5f6020820190508181035f830152611c698184611c19565b905092915050565b611c7a8161197b565b8114611c84575f80fd5b50565b5f8135611c9381611c71565b80915050919050565b5f815f1b9050919050565b5f60ff611cb384611c9c565b9350801983169250808416831791505092915050565b5f611cd38261197b565b9050919050565b5f819050919050565b611cec82611cc9565b611cff611cf882611cda565b8354611ca7565b8255505050565b611d0f81611995565b8114611d19575f80fd5b50565b5f8135611d2881611d06565b80915050919050565b5f8160081b9050919050565b5f66ffffffffffff00611d4f84611d31565b9350801983169250808416831791505092915050565b5f819050919050565b5f611d88611d83611d7e84611995565b611d65565b611995565b9050919050565b5f819050919050565b611da182611d6e565b611db4611dad82611d8f565b8354611d3d565b8255505050565b5f8135611dc7816115fd565b80915050919050565b5f7fffffffffffffffffffffffffffffffffffffffffffffffffffffffffffffffff611dfb84611c9c565b9350801983169250808416831791505092915050565b5f611e2b611e26611e21846115f4565b611d65565b6115f4565b9050919050565b5f819050919050565b611e4482611e11565b611e57611e5082611e32565b8354611dd0565b8255505050565b5f81015f830180611e6e81611c87565b9050611e7a8184611ce3565b5050505f81016020830180611e8e81611d1c565b9050611e9a8184611d98565b505050600181016040830180611eaf81611dbb565b9050611ebb8184611e3b565b505050600281016060830180611ed081611dbb565b9050611edc8184611e3b565b5050505050565b611eed8282611e5e565b5050565b5f81359050611eff81611d06565b92915050565b5f60208284031215611f1a57611f196113ad565b5b5f611f2784828501611ef1565b91505092915050565b611f3981611995565b82525050565b5f602082019050611f525f830184611f30565b92915050565b50565b5f611f665f83611b91565b9150611f7182611f58565b5f82019050919050565b5f611f8582611f5b565b9150819050919050565b7f4e487b71000000000000000000000000000000000000000000000000000000005f52602160045260245ffd5b611fc5816113b5565b82525050565b5f602082019050611fde5f830184611fbc565b92915050565b5f60ff82169050919050565b611ff981611fe4565b82525050565b5f6080820190506120125f830187611fbc565b61201f6020830186611ff0565b61202c6040830185611fbc565b6120396060830184611fbc565b9594505050505056fea2646970667358221220bc9e39f7db115d7b96ea95924c6d43c6b037151bbbd70e57c70a2936421d5ee364736f6c634300081800330000000000000000000000000000000071727de22e5e9d8baf0edac6f37da03200000000000000000000000013ffba08c4c6636062c4fd812a97a67eafc2fe2b"
        }
      ],
      "isFixedGasLimit": false
    },
    {
      "hash": "0xb039634f2ec5603dd1f67b171340428db271d034d3f2b08ce285f3b57e45bd3c",
      "transactionType": "CALL",
      "contractName": "SmartWallet",
      "contractAddress": "0xd63ea46ec889e6fa89072e0083d88908f2918361",
      "function": "execute(address,uint256,bytes)",
      "arguments": [
        "0x1e29B2021541Fafd759C781508868FD5dc97a3f6",
        "0",
        "0xa426dd43000000000000000000000000036cbd53842c5426634e7929541ec2318f3dcf7e00000000000000000000000042000000000000000000000000000000000000060000000000000000000000000000000000000000000000000000000005f5e1000000000000000000000000000000000000000000000000000000000000093a8000000000000000000000000000000000000000000000000000000000000000040000000000000000000000000000000000000000000000000000000000000000"
      ],
      "transaction": {
        "from": "0x13ffba08c4c6636062c4fd812a97a67eafc2fe2b",
        "to": "0xd63ea46ec889e6fa89072e0083d88908f2918361",
        "gas": "0x5c8e8",
        "value": "0x0",
        "input": "0xb61d27f60000000000000000000000001e29b2021541fafd759c781508868fd5dc97a3f60000000000000000000000000000000000000000000000000000000000000000000000000000000000000000000000000000000000000000000000000000006000000000000000000000000000000000000000000000000000000000000000c4a426dd43000000000000000000000000036cbd53842c5426634e7929541ec2318f3dcf7e00000000000000000000000042000000000000000000000000000000000000060000000000000000000000000000000000000000000000000000000005f5e1000000000000000000000000000000000000000000000000000000000000093a800000000000000000000000000000000000000000000000000000000000000004000000000000000000000000000000000000000000000000000000000000000000000000000000000000000000000000000000000000000000000000",
        "nonce": "0x5",
        "chainId": "0x14a34"
      },
      "additionalContracts": [],
      "isFixedGasLimit": false
    },
    {
      "hash": "0x40b06f6785d4abd47de8f03c05ffad2114fd97ba28d305e176fbe42d5a93594c",
      "transactionType": "CALL",
      "contractName": "SmartWallet",
      "contractAddress": "0xd63ea46ec889e6fa89072e0083d88908f2918361",
      "function": "execute(address,uint256,bytes)",
      "arguments": [
        "0x1e29B2021541Fafd759C781508868FD5dc97a3f6",
        "0",
        "0x90e3ce32000000000000000000000000036cbd53842c5426634e7929541ec2318f3dcf7e00000000000000000000000042000000000000000000000000000000000000060000000000000000000000000000000000000000000000000000000005f5e1000000000000000000000000000000000000000000000000000058d15e17628000000000000000000000000000000000000000000000000000000000517da02c000000000000000000000000004adc67696ba383f43dd60a9e78f2c97fbbfc7cb10000000000000000000000000000000000000000000000000000000000000000"
      ],
      "transaction": {
        "from": "0x13ffba08c4c6636062c4fd812a97a67eafc2fe2b",
        "to": "0xd63ea46ec889e6fa89072e0083d88908f2918361",
        "gas": "0x65673",
        "value": "0x0",
        "input": "0xb61d27f60000000000000000000000001e29b2021541fafd759c781508868fd5dc97a3f60000000000000000000000000000000000000000000000000000000000000000000000000000000000000000000000000000000000000000000000000000006000000000000000000000000000000000000000000000000000000000000000e490e3ce32000000000000000000000000036cbd53842c5426634e7929541ec2318f3dcf7e00000000000000000000000042000000000000000000000000000000000000060000000000000000000000000000000000000000000000000000000005f5e1000000000000000000000000000000000000000000000000000058d15e17628000000000000000000000000000000000000000000000000000000000517da02c000000000000000000000000004adc67696ba383f43dd60a9e78f2c97fbbfc7cb1000000000000000000000000000000000000000000000000000000000000000000000000000000000000000000000000000000000000000000000000",
        "nonce": "0x6",
        "chainId": "0x14a34"
      },
      "additionalContracts": [],
      "isFixedGasLimit": false
    },
    {
      "hash": "0x2ca611647a164633a00e94304a79a881e1bfbd255474dbe3093f762474e44d57",
      "transactionType": "CALL",
      "contractName": "SmartWallet",
      "contractAddress": "0xd63ea46ec889e6fa89072e0083d88908f2918361",
      "function": "execute(address,uint256,bytes)",
      "arguments": [
        "0x1e29B2021541Fafd759C781508868FD5dc97a3f6",
        "0",
        "0x514fcac70000000000000000000000000000000000000000000000000000000000000001"
      ],
      "transaction": {
        "from": "0x13ffba08c4c6636062c4fd812a97a67eafc2fe2b",
        "to": "0xd63ea46ec889e6fa89072e0083d88908f2918361",
        "gas": "0xcedf",
        "value": "0x0",
        "input": "0xb61d27f60000000000000000000000001e29b2021541fafd759c781508868fd5dc97a3f6000000000000000000000000000000000000000000000000000000000000000000000000000000000000000000000000000000000000000000000000000000600000000000000000000000000000000000000000000000000000000000000024514fcac7000000000000000000000000000000000000000000000000000000000000000100000000000000000000000000000000000000000000000000000000",
        "nonce": "0x7",
        "chainId": "0x14a34"
      },
      "additionalContracts": [],
      "isFixedGasLimit": false
    },
    {
      "hash": "0x8181814d25195f05d3a0830ca7a95da0c313b791174ae0976da66d1536652501",
      "transactionType": "CALL",
      "contractName": null,
      "contractAddress": "0x1e29b2021541fafd759c781508868fd5dc97a3f6",
      "function": "setFeeConfig(address,uint256)",
      "arguments": [
        "0x13FFba08c4C6636062c4fD812A97a67EAfc2Fe2B",
        "10"
      ],
      "transaction": {
        "from": "0x13ffba08c4c6636062c4fd812a97a67eafc2fe2b",
        "to": "0x1e29b2021541fafd759c781508868fd5dc97a3f6",
        "gas": "0x17394",
        "value": "0x0",
        "input": "0xe07a311100000000000000000000000013ffba08c4c6636062c4fd812a97a67eafc2fe2b000000000000000000000000000000000000000000000000000000000000000a",
        "nonce": "0x8",
        "chainId": "0x14a34"
      },
      "additionalContracts": [],
      "isFixedGasLimit": false
    }
  ],
  "receipts": [
    {
      "status": "0x1",
      "cumulativeGasUsed": "0x347d1e",
      "logs": [
        {
          "address": "0xd63ea46ec889e6fa89072e0083d88908f2918361",
          "topics": [
            "0x8be0079c531659141344cd1fd0a4f28419497f9722a3daafe3b4186f6b6457e0",
            "0x0000000000000000000000000000000000000000000000000000000000000000",
            "0x00000000000000000000000013ffba08c4c6636062c4fd812a97a67eafc2fe2b"
          ],
          "data": "0x",
          "blockHash": "0x0000000000000000000000000000000000000000000000000000000000000000",
          "blockNumber": "0x28f8578",
          "blockTimestamp": "0x6a3269d0",
          "transactionHash": "0x14c60f9cd1ae0f78e96ed552a43cb7b1a9d255f6f65da51d8787b409feb3d1c5",
          "transactionIndex": "0xb",
          "logIndex": "0x25",
          "removed": false
        },
        {
          "address": "0xe097784c26fcf1b3a5d737df5ef48dcbae325939",
          "topics": [
            "0x5b03bfed1c14a02bdeceb5fa582eb1a5765fc0bc64ca0e6af4c20afc9487f081",
            "0x000000000000000000000000d63ea46ec889e6fa89072e0083d88908f2918361",
            "0x00000000000000000000000013ffba08c4c6636062c4fd812a97a67eafc2fe2b"
          ],
          "data": "0x",
          "blockHash": "0x0000000000000000000000000000000000000000000000000000000000000000",
          "blockNumber": "0x28f8578",
          "blockTimestamp": "0x6a3269d0",
          "transactionHash": "0x14c60f9cd1ae0f78e96ed552a43cb7b1a9d255f6f65da51d8787b409feb3d1c5",
          "transactionIndex": "0xb",
          "logIndex": "0x26",
          "removed": false
        }
      ],
      "logsBloom": "0x00000000020004000000000000000000000000000000000000800000000000000000000000000000000000000000000000000000000080000000080000000000000000000000000000000000000000000001080000000000000000000000000000000000020000000000000000002800000400000000000000200020000200400000000000000000000000000000000000000000000000000000000010000000000000000000000000000000000000000000000000000000040000002000000000000000000000000000000000000000000000000000000000000000000020000000000000040000000000000000000000000000000000000000000000000040",
      "type": "0x2",
      "transactionHash": "0x14c60f9cd1ae0f78e96ed552a43cb7b1a9d255f6f65da51d8787b409feb3d1c5",
      "transactionIndex": "0xb",
      "blockHash": "0x0000000000000000000000000000000000000000000000000000000000000000",
      "blockNumber": "0x28f8578",
      "gasUsed": "0x1b85d2",
      "effectiveGasPrice": "0x5b8d80",
      "blobGasUsed": "0xae38",
      "from": "0x13ffba08c4c6636062c4fd812a97a67eafc2fe2b",
      "to": "0xe097784c26fcf1b3a5d737df5ef48dcbae325939",
      "contractAddress": null,
      "daFootprintGasScalar": "0x1be",
      "l1BaseFeeScalar": "0x44d",
      "l1BlobBaseFee": "0x3ba7498",
      "l1BlobBaseFeeScalar": "0xa118b",
      "l1Fee": "0x160b76be9",
      "l1GasPrice": "0x3c921f19",
      "l1GasUsed": "0x640"
    },
    {
      "status": "0x1",
      "cumulativeGasUsed": "0x38ad45",
      "logs": [
        {
          "address": "0x1e29b2021541fafd759c781508868fd5dc97a3f6",
          "topics": [
            "0xbede694013ca1bc9c4f8bc14371466ebd58cd1cbe41a2b3d75c213957ac764c5",
            "0x0000000000000000000000000000000000000000000000000000000000000000",
            "0x000000000000000000000000d63ea46ec889e6fa89072e0083d88908f2918361"
          ],
          "data": "0x0000000000000000000000000000000000000000000000000000000000000000",
          "blockHash": "0x0000000000000000000000000000000000000000000000000000000000000000",
          "blockNumber": "0x28f8578",
          "blockTimestamp": "0x6a3269d0",
          "transactionHash": "0xb039634f2ec5603dd1f67b171340428db271d034d3f2b08ce285f3b57e45bd3c",
          "transactionIndex": "0xc",
          "logIndex": "0x27",
          "removed": false
        }
      ],
      "logsBloom": "0x00000000000004000000000000004000000000000000000000000000000000000000000000000000000000000000000000000000000000000000000000000000000000000000000000000000000000000000000000000000000000000000000000000000020000000004000000000800000000000000000000000000000000000000000000000000000000000000000000000000000000000000000000000000000400000000000000000000000000000000000000000000100000800000000000000000000000000000000000000000000000000000000000000000000020000000000000040000000000000000000000000800000000000000000000000040",
      "type": "0x2",
      "transactionHash": "0xb039634f2ec5603dd1f67b171340428db271d034d3f2b08ce285f3b57e45bd3c",
      "transactionIndex": "0xc",
      "blockHash": "0x0000000000000000000000000000000000000000000000000000000000000000",
      "blockNumber": "0x28f8578",
      "gasUsed": "0x43027",
      "effectiveGasPrice": "0x5b8d80",
      "blobGasUsed": "0x10554",
      "from": "0x13ffba08c4c6636062c4fd812a97a67eafc2fe2b",
      "to": "0xd63ea46ec889e6fa89072e0083d88908f2918361",
      "contractAddress": null,
      "daFootprintGasScalar": "0x1be",
      "l1BaseFeeScalar": "0x44d",
      "l1BlobBaseFee": "0x3ba7498",
      "l1BlobBaseFeeScalar": "0xa118b",
      "l1Fee": "0x160b76be9",
      "l1GasPrice": "0x3c921f19",
      "l1GasUsed": "0x96a"
    },
    {
      "status": "0x1",
      "cumulativeGasUsed": "0x3d43e5",
      "logs": [
        {
          "address": "0x1e29b2021541fafd759c781508868fd5dc97a3f6",
          "topics": [
            "0xbede694013ca1bc9c4f8bc14371466ebd58cd1cbe41a2b3d75c213957ac764c5",
            "0x0000000000000000000000000000000000000000000000000000000000000001",
            "0x000000000000000000000000d63ea46ec889e6fa89072e0083d88908f2918361"
          ],
          "data": "0x0000000000000000000000000000000000000000000000000000000000000001",
          "blockHash": "0x0000000000000000000000000000000000000000000000000000000000000000",
          "blockNumber": "0x28f8578",
          "blockTimestamp": "0x6a3269d0",
          "transactionHash": "0x40b06f6785d4abd47de8f03c05ffad2114fd97ba28d305e176fbe42d5a93594c",
          "transactionIndex": "0xd",
          "logIndex": "0x28",
          "removed": false
        }
      ],
      "logsBloom": "0x00000000000004000000000000004000000000000000000000000000000000000000000000000000000000000000000000000000000000000000000000040000000000000000000000000000000000000000000000040000000000000000000000000000000000000004000000000000000000000000000000000000000000000000000000000000000000000000000000000000000000000000000000000000000400000000000000000000000000000000000000000000100000800000000000000000000000000000000000000000000000000000000000000000000040000000000000040000000000000000000000000800000000000000000000000040",
      "type": "0x2",
      "transactionHash": "0x40b06f6785d4abd47de8f03c05ffad2114fd97ba28d305e176fbe42d5a93594c",
      "transactionIndex": "0xd",
      "blockHash": "0x0000000000000000000000000000000000000000000000000000000000000000",
      "blockNumber": "0x28f8578",
      "gasUsed": "0x496a0",
      "effectiveGasPrice": "0x5b8d80",
      "blobGasUsed": "0x130e2",
      "from": "0x13ffba08c4c6636062c4fd812a97a67eafc2fe2b",
      "to": "0xd63ea46ec889e6fa89072e0083d88908f2918361",
      "contractAddress": null,
      "daFootprintGasScalar": "0x1be",
      "l1BaseFeeScalar": "0x44d",
      "l1BlobBaseFee": "0x3ba7498",
      "l1BlobBaseFeeScalar": "0xa118b",
      "l1Fee": "0x160b76be9",
      "l1GasPrice": "0x3c921f19",
      "l1GasUsed": "0xafb"
    },
    {
      "status": "0x1",
      "cumulativeGasUsed": "0x3dd9ab",
      "logs": [
        {
          "address": "0x1e29b2021541fafd759c781508868fd5dc97a3f6",
          "topics": [
            "0x61b9399f2f0f32ca39ce8d7be32caed5ec22fe07a6daba3a467ed479ec606582",
            "0x0000000000000000000000000000000000000000000000000000000000000001"
          ],
          "data": "0x",
          "blockHash": "0x0000000000000000000000000000000000000000000000000000000000000000",
          "blockNumber": "0x28f8578",
          "blockTimestamp": "0x6a3269d0",
          "transactionHash": "0x2ca611647a164633a00e94304a79a881e1bfbd255474dbe3093f762474e44d57",
          "transactionIndex": "0xe",
          "logIndex": "0x29",
          "removed": false
        }
      ],
      "logsBloom": "0x00000000000000000000000000000000000000000000000000000000000000000000000000000000000000000000000000000000000000000000000000040000000000000000000000000000000000000000000000040000100000000000000000000000000000000000000000000000000000000000000000000000000008000000000000000000000000000000000000000000000000000000000000000000000400000000000000000000000000000000000000000000100000800000000000000000000000000000000000000000000000000000000000000000000040000000000000000000000000000000000000000000000000000000008000000000",
      "type": "0x2",
      "transactionHash": "0x2ca611647a164633a00e94304a79a881e1bfbd255474dbe3093f762474e44d57",
      "transactionIndex": "0xe",
      "blockHash": "0x0000000000000000000000000000000000000000000000000000000000000000",
      "blockNumber": "0x28f8578",
      "gasUsed": "0x95c6",
      "effectiveGasPrice": "0x5b8d80",
      "blobGasUsed": "0xae38",
      "from": "0x13ffba08c4c6636062c4fd812a97a67eafc2fe2b",
      "to": "0xd63ea46ec889e6fa89072e0083d88908f2918361",
      "contractAddress": null,
      "daFootprintGasScalar": "0x1be",
      "l1BaseFeeScalar": "0x44d",
      "l1BlobBaseFee": "0x3ba7498",
      "l1BlobBaseFeeScalar": "0xa118b",
      "l1Fee": "0x160b76be9",
      "l1GasPrice": "0x3c921f19",
      "l1GasUsed": "0x640"
    },
    {
      "status": "0x1",
      "cumulativeGasUsed": "0x3ee6b0",
      "logs": [],
      "logsBloom": "0x00000000000000000000000000000000000000000000000000000000000000000000000000000000000000000000000000000000000000000000000000000000000000000000000000000000000000000000000000000000000000000000000000000000000000000000000000000000000000000000000000000000000000000000000000000000000000000000000000000000000000000000000000000000000000000000000000000000000000000000000000000000000000000000000000000000000000000000000000000000000000000000000000000000000000000000000000000000000000000000000000000000000000000000000000000000",
      "type": "0x2",
      "transactionHash": "0x8181814d25195f05d3a0830ca7a95da0c313b791174ae0976da66d1536652501",
      "transactionIndex": "0xf",
      "blockHash": "0x0000000000000000000000000000000000000000000000000000000000000000",
      "blockNumber": "0x28f8578",
      "gasUsed": "0x10d05",
      "effectiveGasPrice": "0x5b8d80",
      "blobGasUsed": "0xae38",
      "from": "0x13ffba08c4c6636062c4fd812a97a67eafc2fe2b",
      "to": "0x1e29b2021541fafd759c781508868fd5dc97a3f6",
      "contractAddress": null,
      "daFootprintGasScalar": "0x1be",
      "l1BaseFeeScalar": "0x44d",
      "l1BlobBaseFee": "0x3ba7498",
      "l1BlobBaseFeeScalar": "0xa118b",
      "l1Fee": "0x160b76be9",
      "l1GasPrice": "0x3c921f19",
      "l1GasUsed": "0x640"
    }
  ],
  "libraries": [],
  "pending": [],
  "returns": {},
  "timestamp": 1781688783,
  "chain": 84532,
  "commit": null
}