{
  "transactions": [
    {
      "hash": "0xe3a8120680d69cc585e2b340d03107a610d34e0c661ea27807519ff9f51fbf8e",
      "transactionType": "CALL",
      "contractName": null,
      "contractAddress": "0xd63ea46ec889e6fa89072e0083d88908f2918361",
      "function": "execute(address,uint256,bytes)",
      "arguments": [
        "0x1e29B2021541Fafd759C781508868FD5dc97a3f6",
        "0",
        "0xa426dd43000000000000000000000000036cbd53842c5426634e7929541ec2318f3dcf7e00000000000000000000000042000000000000000000000000000000000000060000000000000000000000000000000000000000000000000000000000989680000000000000000000000000000000000000000000000000000000000001518000000000000000000000000000000000000000000000000000000000000000020000000000000000000000000000000000000000000000000000000000000000"
      ],
      "transaction": {
        "from": "0x13ffba08c4c6636062c4fd812a97a67eafc2fe2b",
        "to": "0xd63ea46ec889e6fa89072e0083d88908f2918361",
        "gas": "0x5e71f",
        "value": "0x0",
        "input": "0xb61d27f60000000000000000000000001e29b2021541fafd759c781508868fd5dc97a3f60000000000000000000000000000000000000000000000000000000000000000000000000000000000000000000000000000000000000000000000000000006000000000000000000000000000000000000000000000000000000000000000c4a426dd43000000000000000000000000036cbd53842c5426634e7929541ec2318f3dcf7e0000000000000000000000004200000000000000000000000000000000000006000000000000000000000000000000000000000000000000000000000098968000000000000000000000000000000000000000000000000000000000000151800000000000000000000000000000000000000000000000000000000000000002000000000000000000000000000000000000000000000000000000000000000000000000000000000000000000000000000000000000000000000000",
        "nonce": "0xa",
        "chainId": "0x14a34"
      },
      "additionalContracts": [],
      "isFixedGasLimit": false
    }
  ],
  "receipts": [
    {
      "status": "0x1",
      "cumulativeGasUsed": "0x1bc1f9",
      "logs": [
        {
          "address": "0x1e29b2021541fafd759c781508868fd5dc97a3f6",
          "topics": [
            "0xbede694013ca1bc9c4f8bc14371466ebd58cd1cbe41a2b3d75c213957ac764c5",
            "0x0000000000000000000000000000000000000000000000000000000000000002",
            "0x000000000000000000000000d63ea46ec889e6fa89072e0083d88908f2918361"
          ],
          "data": "0x0000000000000000000000000000000000000000000000000000000000000000",
          "blockHash": "0x0000000000000000000000000000000000000000000000000000000000000000",
          "blockNumber": "0x28f8814",
          "blockTimestamp": "0x6a326f08",
          "transactionHash": "0xe3a8120680d69cc585e2b340d03107a610d34e0c661ea27807519ff9f51fbf8e",
          "transactionIndex": "0x5",
          "logIndex": "0x6",
          "removed": false
        }
      ],
      "logsBloom": "0x04000000000004000000000000004000000000000000000000000000000000000000000000000000000000000000000000000000000000000000000000000000000000000000000000000000000000000000000000000000000000000000000000000000000000000004000000000000000000000000000000000000000000000000000000000000000000000000000000000000000000000000000000000000000400000000000000000100000000000000000000000000100000800000000000000000000000000000000000000000000000000000000000000000000000000000000000040000000000000000000000000800008000000000000000000040",
      "type": "0x2",
      "transactionHash": "0xe3a8120680d69cc585e2b340d03107a610d34e0c661ea27807519ff9f51fbf8e",
      "transactionIndex": "0x5",
      "blockHash": "0x0000000000000000000000000000000000000000000000000000000000000000",
      "blockNumber": "0x28f8814",
      "gasUsed": "0x44607",
      "effectiveGasPrice": "0x5b8d80",
      "blobGasUsed": "0x101d8",
      "from": "0x13ffba08c4c6636062c4fd812a97a67eafc2fe2b",
      "to": "0xd63ea46ec889e6fa89072e0083d88908f2918361",
      "contractAddress": null,
      "daFootprintGasScalar": "0x1be",
      "l1BaseFeeScalar": "0x44d",
      "l1BlobBaseFee": "0x38306a9",
      "l1BlobBaseFeeScalar": "0xa118b",
      "l1Fee": "0x155a2f307",
      "l1GasPrice": "0x3e64333c",
      "l1GasUsed": "0x94f"
    }
  ],
  "libraries": [],
  "pending": [],
  "returns": {},
  "timestamp": 1781690118,
  "chain": 84532,
  "commit": null
}